S01A000045787465726E616C5F496E746572727570742E737265639B
S11300000C9434000C944E000C9460000C943E004C
S11300100C943E000C943E000C943E000C943E0064
S11300200C943E000C943E000C943E000C943E0054
S11300300C943E000C943E000C943E000C943E0044
S11300400C943E000C943E000C943E000C943E0034
S11300500C943E000C943E000C943E000C943E0024
S11300600C943E000C943E0011241FBECFEFD8E048
S1130070DEBFCDBF0E9440000C947D000C940000B4
S11300801AB88FEF8BB980E284B98FED85B982E01D
S11300908093690083E08DBB7894FFCF1F920F9209
S11300A00FB60F9211248F939F9395B180E2892705
S11300B085B99F918F910F900FBE0F901F90189547
S11300C01F920F920FB60F9211242F938F939F9329
S11300D095B180E2892785B92FEF83EC99E021500F
S11300E080409040E1F700C000009F918F912F91D4
S11100F00F900FBE0F901F901895F894FFCF3D
S9030000FC
